:020000040001F9
:10B00000D833002049B1010063B1010065B10100EE
:10B010000000000000000000000000000000000030
:10B0200000000000000000000000000067B1010007
:10B03000000000000000000069B101006BB10100D8
:10B040006DB101006DB1010041B501006DB10100AC
:10B050006DB1010000000000C1B201006DB101003E
:10B060006DB101006DB101006DB101006DB1010064
:10B070006DB101006DB101006DB101006DB1010054
:10B080006DB1010059B401006DB101006DB1010055
:10B0900079B401006DB1010081B401006DB101000E
:10B0A0006DB101006DB10100000000000000000062
:10B0B0000000000000000000000000000000000090
:10B0C0000348854600F0CCF800480047F5EC010045
:10B0D000D8330020401E00BF00BF00BF00BF00BF2C
:10B0E00000BF00BF00BF00BF00BF00BF00BFF1D165
:10B0F00070470000401E00BF00BF00BF00BF00BF80
:10B1000000BF00BF00BF00BF00BF00BF00BFF1D144
:10B1100070470000056885F308884068FF2464B222
:10B12000EFF30585002D01D1A646004725460646CA
:10B1300021273FBAF0B40024002500260027F0B4F0
:10B14000F92040B2004700000321094802680A4381
:10B150000260084802680A430260074880470748BF
:10B160000047FEE7FEE7FEE7FEE7FEE7FEE700003A
:10B170002405004054050040A1B40100C1B0010005
:10B1800030B50B46014600202022012409E00D467F
:10B19000D5409D4205D31D469540491B2546954007
:10B1A00040191546521E002DF1DC30BD70B500244B
:10B1B0002546002801DA01244042002901DA012550
:10B1C0004942FFF7DDFFAC4200D04042002C00D0E6
:10B1D000494270BD10B5431A934209D283188818AA
:10B1E00003E0401E01785B1E1970521EF9D210BD9B
:10B1F00003460B439B0703D009E008C9121F08C090
:10B20000042AFAD203E00B780370401C491C521E3A
:10B21000F9D210BDD2B201E00270401C491EFBD22F
:10B2200070470022F6E710B513460A460446194651
:10B23000FFF7F0FF204610BD421C0178401C00299A
:10B24000FBD1801A704730B504460020034600E069
:10B250005B1C934203D2E05CCD5C401BF8D030BD58
:10B26000064C0125064E05E0E36807CC2B430C3C59
:10B2700098471034B442F7D3FFF726FF00060200C8
:10B280002006020030B58C180278401C13071B0FF3
:10B2900001D10378401C120906D10278401C03E05A
:10B2A00005780D70401C491C5B1EF9D101E00B7044
:10B2B000491C521EFBD1A142E6D3002030BD000044
:10B2C000F0B50025FF248BB0013401262F460195EF
:10B2D000204603F069FF002808D047484068304204
:10B2E00004D046480021201835430160241D760013
:10B2F0007F1CA4B2042FEBD3FF207D3003F054FF5A
:10B30000002807D03E4800210160400705433D4822
:10B31000006901903C4C280712D0012700262F42DB
:10B320000AD03A48B200111808690969C004C00E71
:10B330008903A258890F90477F00761C042EEED314
:10B34000002D57DA00200590401E4DE0A119403134
:10B3500008788506AD0E42B2521C39D00121A940B1
:10B36000089A0091114233D080090390284601F0D9
:10B370002FFE800020580490002802D10398032853
:10B3800026D103980099032802D105980843059017
:10B390001F4AA80080180068019A8003800F11429C
:10B3A00002D0022802D013E0032811D10399032907
:10B3B00007D102281CD00221284603F0E5FE7F1C9D
:10B3C000FFB20498002803D0049A284603999047B6
:10B3D000761C042EBAD3002F0CD00A4800690199BC
:10B3E000884207D00190059800273E460890ADE7B7
:10B3F0000321E1E70BB0F0BD0063004000600040B6
:10B400007C61004000050050482800200065004095
:10B41000000700508307FF22DB0E9A408907090EC0
:10B42000994000280BDA0007000F08388308084805
:10B430009B001818C36993430B43C361704783088B
:10B4400004489B001B181868904308431860704715
:10B4500000ED00E000E400E010B5064900200860BF
:10B4600048608860C860034940390860486004F05B
:10B4700033FE10BD4011014010B504F0C3FD10BDF6
:10B4800010B506484068002805D08047002801D044
:10B4900000F042FA10BD03F099FA10BDD42100204B
:10B4A00010B503F0DDFA002805D01F491D4848609B
:10B4B000C8131E4988611E48018CC9B201290BD1ED
:10B4C000828C120708D1028D1206120F042A03D1B2
:10B4D000828D1206120F0AD0012921D1818C090711
:10B4E0001ED1018D0906090F0A2904D007E0114A6F
:10B4F00001219160F5E7828D1206120F05D00D290A
:10B500000ED1808D0006000F0AD10B480168012979
:10B5100004D00A49016001680129FCD1C0214161C0
:10B5200010BD0000DFFF07C000050040006C0040B8
:10B53000C00F00F00006004000EC064075930000CC
:10B5400010B504F06FFE10BD30B47446641E25784B
:10B55000641CAB4200D21D46635D5B00E31830BC47
:10B56000184702E008C8121F08C1002AFAD1704724
:10B570007047002001E001C1121F002AFBD1704773
:10B58000F7B584B00025168807461580406B144631
:10B59000002813D003780598032E51D3022101709F
:10B5A00021881122491C89B2218042542188491CDA
:10B5B00089B2218043542088401C2080386B0028A9
:10B5C0001DD005462088059902461232B24237D86E
:10B5D00011220A5420881022401C80B220800A5474
:10B5E0002088401C20800F202A5C2388401ECA54DB
:10B5F000228840B2521C22800028F5DA0025384605
:10B6000020300290807B002806D0334622460599E0
:10B6100003F072FA050014D10298407B002806D08E
:10B6200032462146059800F0ADFE050009D1B878F4
:10B63000002823D0059886462088001DB04202D9F4
:10B640000C2007B0F0BD684679DF0028F9D12188C9
:10B6500003207246505420881921401C80B220805B
:10B66000115420887146401C80B2208041186846E1
:10B67000008804F06BFE218840182080F8780028AC
:10B6800017D0218803230A46FB56C91C0598B142EE
:10B69000D6D80221815421880122491C89B22180F7
:10B6A00042542188491C89B2218043542088401C7F
:10B6B00020807868002817D021880023C3560A46C6
:10B6C000C91C0598B142BBD80221815421880A22A5
:10B6D000491C89B2218042542188491C89B22180A9
:10B6E00043542088401C2080388900280AD00094C8
:10B6F00038460196062202210830059B04F0A5FE7B
:10B7000005009ED1388A00280AD000943846019658
:10B71000072203211030059B04F097FE050090D10D
:10B72000388B00280AD0009438460196152214213F
:10B730001830059B04F089FE050082D1386A002884
:10B7400006D033462246059901F0F0FD0500D8D118
:10B75000786A002806D033462246059903F05CFB40
:10B760000500CED10298007B002807D03346224640
:10B770003846059904F0B5F90500C2D1387800289B
:10B7800007D0334622463846059903F079FB050079
:10B79000B7D1284655E710B501220221002001F05B
:10B7A00043FA002801D0072812D1072202210120E4
:10B7B00001F03AFA002801D0072809D100210A2215
:10B7C000084601F031FA002801D0072800D10020F6
:10B7D00010BD0000044842680121C9050B4693438F
:10B7E00083600A40C26070470005005070B50024B5
:10B7F000064D06E06968E000085C012103F0D4FB17
:10B80000641C28788442F5D3002070BD9821002064
:10B81000F8B515460C460646052A01D20720F8BDA4
:10B8200003F098FC002803D103F06AFC0028F6D14D
:10B83000104900204E600C70C8608D6008610E4D8C
:10B840000DE0E00069688019009181786A465170C6
:10B8500000780A4A694603F0F7FB0028DFD120464A
:10B86000641EE4B20028ECD1054A0021024800F031
:10B870008BF8F8BD98210020F805020071E701005F
:10B88000F5D401003EB5044604200190164802900C
:10B890006946204602F0ECF8002805D0134988429A
:10B8A00001D000F039F83EBD0F480C38017BC907C4
:10B8B00014D00F4A0C218088A7DF00280ED00D4934
:10B8C00088420BD0082809D0891C884206D011284C
:10B8D00004D00949884201D000F01EF8204602F049
:10B8E0007DF80028DDD13EBD8C2000204080000086
:10B8F000FFFF00000230000001340000BFF34F8F53
:10B9000004490348C860BFF34F8F00BFFDE7000044
:10B910000400FA0500ED00E00EB500210290009150
:10B920006A4601910148FFF7E9FF0EBD01400000A2
:10B93000014B1B68184700002428002038B50C462E
:10B94000A2680C235A43064B09789D58054A126A8F
:10B9500000920246204608302369A84738BD0000FF
:10B96000082B00207421002010B5064914230A7802
:10B970005A435118091DFFF7E1FF042004F0A0F914
:10B9800010BD0000AC280020094B9B68002B07D09D
:10B99000002A07D0002805D00068037C002B03D0C4
:10B9A00008207047072070474174426100207047AB
:10B9B000AC210020FFB59007002581B014460E464B
:10B9C000002832D11B4F002C31D003F07FFF0498A8
:10B9D00078610320387033461821224600204B43FB
:10B9E000BC601834C10089180D704D708E704C60A9
:10B9F0001C19401C0328F5DBFD607D7001240E48F6
:10BA0000BD702405046003211420FFF703FD0B48DB
:10BA100004600B4C0198A06003211120FFF7FAFC91
:10BA200060683861002005B0F0BD0720FBE7BD600D
:10BA3000FBE70000AC21002080E200E000E100E034
:10BA400000150140FEB50D461B491746896804469E
:10BA500000292AD0002C28D0052D01D20720FEBDB8
:10BA60006069002821D0607C012820D0002604F0E5
:10BA7000AFFCC0001049019089684018694604F085
:10BA8000D1FC002815D0012101700C49446049689F
:10BA90000830E2C008490198896841186846007872
:10BAA000487004F0F1FA0020FEBD0820FEBD2E46CD
:10BAB000DDE70420FEBD0000AC21002000150140A0
:10BAC000F8B5134D0446A96800291CD0002C1AD0E3
:10BAD0006069002817D00026267404F079FCC7009E
:10BAE000A8686946381804F09DFC00280DD0022192
:10BAF00001704460A868391868460078487004F0FE
:10BB0000C3FA3046F8BD0820F8BD0420F8BD000097
:10BB1000AC21002010B5144C01210022090420683A
:10BB2000FFF790FF002801D0FFF7F6FE0121002269
:10BB3000C9036068FFF786FF002801D0FFF7ECFE1D
:10BB400000220A49A068FFF77DFF002801D0FFF717
:10BB5000E3FE05210022C903E068FFF773FF002818
:10BB600001D0FFF7D9FE10BD38050200662600009F
:10BB7000F0B50546007D002493B00E4600280DD098
:10BB8000012001466846103103940173717B4173B3
:10BB9000817BF92001406846891C81731C2104A81F
:10BBA000FFF73FFB6946087C022108436946087499
:10BBB0002A7DEF21002A02D01022104300E0084025
:10BBC0006A461074059407940894287D002800D0D4
:10BBD00003A8099001270A9410469771304A828081
:10BBE0000094B27B0270F27B42708078F9221040A0
:10BBF000F722801C1040EF210840410849006846A8
:10BC00008170317B017214210BA8FFF70AFB01A898
:10BC10000B9068460C908786C486078702A80F9011
:10BC2000A888AB1D0BAA04A9A2DF002835D1B068F3
:10BC3000002830D0684687711A4981800094317C91
:10BC4000017000200146684641708078F921084063
:10BC5000F721801C0840EF21084041084900684650
:10BC6000817011A8B16800F0F0FD064614210BA800
:10BC7000FFF7D7FA01A80B9068460C908686C48619
:10BC8000068711A80F902A46E8880E320BA9A3DF79
:10BC9000002802D100E0EC81002013B0F0BD0000CC
:10BCA000192A00000829000010B50B490B4803F0C1
:10BCB0000BFFC1B20848683800F05CFA002809D0D0
:10BCC000082807D00649884204D00649884201D096
:10BCD000FFF722FE10BD0000EC2400209020002081
:10BCE0000430000001340000F0B50C4693B01F2171
:10BCF0006A461180072600279180002809D0C17864
:10BD000049070DD502A9FFF73BFC002809D102AD78
:10BD100001E000251780002C0ED0E078002802D02A
:10BD2000304613B0F0BD01AA0AA92046FFF728FC4F
:10BD30000028F6D10AAA02E06846002287806846F9
:10BD40008088C3B268460088C1B2284672DFE8E73F
:10BD500070B50D4604991646040042D0002E40D01E
:10BD6000424800224271C3600161242231464048AA
:10BD7000FFF730FA00F0D4F83D4934310846103866
:10BD800001602031816038215C38FFF74AFA384879
:10BD9000217838380170A1788170E178C1706178BC
:10BDA00041706269216942610161E268A168C26013
:10BDB00081600146E369A269CB618A61616A0029F9
:10BDC00019D00146AC310246B83241628A60636ADA
:10BDD0001B880B80616A436A898899800021436AC5
:10BDE00006E00E2070BD666AB668765C5654491C43
:10BDF0009E888E42F7D8A16A00291CD01C4AAC321A
:10BE000011460C398A608162A36A9B888B80A16A83
:10BE1000836A098819800021836A04E0A66AB668EB
:10BE2000765C5654491C9E888E42F7D82C210A5DB8
:10BE30000F4918390A73216A002909D00B491431B6
:10BE40000162226A52884A80216A026A0988118046
:10BE50006168002904D00549891D4160616841601D
:10BE6000034829463838FFF73FFF70BDD420002033
:10BE7000F025002010B502881C4C102A17D0002194
:10BE8000112A1AD01B2A11D1007A00280ED160790C
:10BE900001281ED0022822D0032822D0042805D150
:10BEA0002171E2680846002A00D0904710BD817DCC
:10BEB0000129FBD18088208110BD61708088218993
:10BEC0008842F9D1012005E021690029F4D0884792
:10BED00010BD022000F058F80028F5D110BD032055
:10BEE000F8E7032020710420F4E70000D4200020AC
:10BEF00010B5022801D003280ED1084C2078002864
:10BF00000AD000202070607900F03EF8002803D0AD
:10BF10002169002900D0884710BD0000D4200020EE
:10BF200010B507210148FFF77CF910BDEC20002077
:10BF300010B51348007801281FD1124C60780028F2
:10BF40001BD16079002802D074DF002816D10120AF
:10BF50000B49607006203839C8700948002138380C
:10BF6000FFF7C2FE002809D1607900F00DF8002823
:10BF700003D02169002900D08847002010BD0000AF
:10BF8000F0250020D4200020F0B5784C87B06071F7
:10BF9000002606A8069603F017FA0127082802D003
:10BFA000002808D104E006A802F0CEFA002804D147
:10BFB0000698002801D02770D4E0FFF7B1FF6C4D40
:10BFC0006878002802D06079012807D0A878002876
:10BFD0000CD06079012801D0022824D1E168002921
:10BFE00003D0E7700820884700E0E67060790128F8
:10BFF00008D16878002809D05C48193003F084F92A
:10C00000002803D06079022802D00CE00220607181
:10C01000A878002805D05548193003F075F9002894
:10C0200001D103206071287B002804D160790328A6
:10C0300001D104206071287E002804D16079042891
:10C0400001D166712671E16800290AD06079032860
:10C0500001D0042805D12878002802D06078002873
:10C0600017D0A67018216846FFF7DBF868460670FF
:10C07000019606720396607901280ED0022815D029
:10C080003B4E243637465C3F03281BD004285DD145
:10C090003AE0A77007208847E4E734481830019059
:10C0A0006846077046820682277152E02F48183092
:10C0B00001906846077029894182A988018202207F
:10C0C000207146E0A88A69464882288A0882284862
:10C0D000243004F029FA002805D02878002802D05E
:10C0E0006078002801D003202FE002206946087202
:10C0F00004200396F8701E4800213838FFF7F4FD3D
:10C10000002830D1052020E0A88B69460882288CC1
:10C1100048821748243004F007FA002805D0287810
:10C12000002802D06078002801D004200DE0022011
:10C130006946087204200396F8700D4800213838CB
:10C14000FFF7D2FD00280ED106202071607900286B
:10C1500003D0684673DF002805D1E168002901D0CB
:10C1600020798847002007B0F0BD0000D4200020CF
:10C17000F025002073B586B004002FD06A46217CDC
:10C18000127F0020914227D00025012668460095A5
:10C190000680458007A80190E188608A6A46A4DF8E
:10C1A000002819D16846007F2074608A0D498842B2
:10C1B00016D0207D002813D002950395049505958F
:10C1C000E1886846018186724188818104900198E6
:10C1D0000590608A02A9A6DF08B070BD0E20FBE7BB
:10C1E0000820F9E7FFFF000038B50D4604001AD01B
:10C1F000002D18D0286820600020C0436082287974
:10C200002075FF2020740121684681700749018054
:10C21000221D69460120A0DF002803D129462046BF
:10C22000FFF7A6FC38BD0E2038BD00000F18000037
:10C2300038B5002824D0002922D00A88102A1AD024
:10C24000112A1AD0502A1BD1027D002A18D0CA8880
:10C250004389891D9A4213D14A89022A10D1026862
:10C26000002A0DD04B7B0C7B19022143C907C90F53
:10C2700007D0002106E0898801E00021C9434182FE
:10C2800038BD01216B4619706946904738BD0000E2
:10C2900070B5054601461C220E48FEF79BFF0E4C6A
:10C2A000002626702968002906D00822201DFEF7E6
:10C2B00091FF201D7ADF02E00748001D7BDF002888
:10C2C00007D1401E60806670044A00210448FFF7D1
:10C2D0005BFB70BDDC260020F42000206D03020013
:10C2E00088050200F8B5214C028800271E4DE6891A
:10C2F000102A15D01E49112A21D0122A2DD0502AD9
:10C300001CD1C288801DB24218D14289022A15D19F
:10C31000427B037B10021843C007C00F0CD112E010
:10C320008188698001461048082218310C30FEF7D8
:10C3300051FF6F70002E01D101F040F8F8BD0020D0
:10C34000C04368806F700868FFF7BAFB0028F5D01B
:10C35000A1690029F2D08847F8BD08228118024857
:10C360000C30FEF737FFE7E7F4200020DC26002042
:10C370008805020010B502480068FFF7A1FB10BD58
:10C38000880502007CB5054608880C4609309042B5
:10C3900001D90C207CBD684671DF0028FAD12188C4
:10C3A0000820685420881B21401C80B2208029541A
:10C3B000208800A9401C80B220804019062201314B
:10C3C000FEF708FF20886946801D80B2208009782A
:10C3D000002900D0012129542088401C2080002001
:10C3E0007CBD000030B585B00D46040039D0002D6D
:10C3F00037D06868002834D00020C0431A4B208012
:10C400000FCB049301AB07C318486946088001A805
:10C41000811E63DF002822D1221D69460120A0DF92
:10C4200000281CD168468078A071204601F04CFAA3
:10C43000002814D1204601F003FA00280FD1294624
:10C44000204601F083FA002809D16868A062A86834
:10C45000002800D0E062064901200870002005B0E5
:10C4600030BD0E20FBE700008C05020030150000F7
:10C47000082100203EB5002828D0002926D0826A55
:10C48000002A23D00A88102A21D0112A30D0502A1D
:10C490001FD0512A1AD10A460446891D087802285D
:10C4A00014D14888238A984210D1907B04280DD05B
:10C4B00006280BD0052809D02046891C02F0ACFEC6
:10C4C000002803D0E16A002900D088473EBD898852
:10C4D00010E0CB8802899342F8D108226B461A708B
:10C4E0000A7C1A7212310191826A694690473EBDF8
:10C4F0000021C94301803EBD30B585B0002822D05F
:10C500000388134CA34220D0124B1B78002B1CD065
:10C51000104B10255B1C1D705970002401259A706A
:10C52000032269460A820094019402940394028AC9
:10C530000A808D708C8004A902910393008869465B
:10C54000A6DF05B030BD0E20FBE70820F9E70000AC
:10C55000FFFF0000082100207FB504460121684646
:10C5600081714A4981804A4A01A90120A0DF00283F
:10C570007ED1228825463C35002A09D044482B46E6
:10C58000801C00904348616800F02AFD00287BD1A0
:10C590002289002A0AD03E482B460A3000903D48A6
:10C5A000E168401F00F01CFD00286DD1228A002A9E
:10C5B0000AD037482B461230009036486169001F78
:10C5C00000F00EFD00285FD1228B002A0AD03048EF
:10C5D0002B461A3000902F48E169801E00F000FDC4
:10C5E000002851D1228C002A0AD029482B4622301B
:10C5F00000902848616AC01E00F0F2FC002843D178
:10C60000228D002A0AD022482B462A300090214849
:10C61000E16A401E00F0E4FC002835D1216B0029BE
:10C620000ED002A803F0B8FC19482B463230009017
:10C630001848082202A9801F00F0D2FC002823D14C
:10C64000606B00280BD012492B463A3100910279D9
:10C6500001681048401C00F0C3FC002814D1A16BF5
:10C66000002910D002A802F093FE0948423000E0F1
:10C670000AE0009007482B46072202A9273000F065
:10C68000AFFC002800D1002004B070BD0A180000E3
:10C6900010210020292A000070B5044601F0CCFAD0
:10C6A0002146154800F086F8134821461838FFF750
:10C6B000BFFD2046FFF716FE204600F0EDF90E48BC
:10C6C00021468030FFF7D6FE20880C4D102802D07E
:10C6D00011280CD108E0072000F0CAFA002801D088
:10C6E000FFF71AF9A08801E00020C043A880204687
:10C6F000FFF7C0FB70BD00009C24002080200020BC
:10C7000030B50446008C134A8BB090421FD006AA65
:10C71000204602F017F9694605460880002001907E
:10C7200002900390049022898A8001228A710881F4
:10C7300006A803910490208C01A9A6DF002804D14B
:10C7400069460988A94200D00C200BB030BD0820F2
:10C75000FBE70000FFFF000038B5044608682060D2
:10C76000087960710020C0430D46208400202221FA
:10C7700008554C2108530121684681700C490180FD
:10C78000A21D69460120A0DF00280FD129462046BE
:10C7900002F080F8002809D1A868002805D02946B1
:10C7A000204600F09DF8002800D1002038BD000090
:10C7B0000D18000038B50A88102A17D0112A17D092
:10C7C000502A18D1CA888389891D9A4213D14A896F
:10C7D000022A10D10268002A0DD04B7B0C7B190273
:10C7E0002143C907C90F07D0002106E0898801E06D
:10C7F0000021C943018438BD01216B461970694687
:10C80000904738BD70B5054604464035A8890E46A8
:10C81000142807D12622A118881EFEF7DBFCA88960
:10C82000401EA88180B241000919401CA8818E8455
:10C8300070BD20308170704770B504460D460846C3
:10C84000FEF7FAFC2080656070BD0A7802704978B6
:10C85000417002207047000000B51C4887B0006995
:10C860000590002348221A4905A803F079FA002808
:10C8700001D0FFF751F86A460121002003F058FA71
:10C88000002801D0FFF748F80120694608731148D5
:10C8900003F068F8002801D0FFF73EF8684603F07F
:10C8A0003DFA002801D0FFF737F80B4803F02CFAC7
:10C8B000002801D0FFF730F8084803F06BFA002891
:10C8C00001D0FFF729F807B000BD000038050200CD
:10C8D0003C240020E81F002099C6010089FF0100C8
:10C8E000F0B58FB00D4606461C216846FEF799FC50
:10C8F00068460178022001436846017000240194D3
:10C90000039404940594012708A806948770154998
:10C91000684601840794E97B0177297C4177807F11
:10C92000F9210840F721801C0840EF210840410808
:10C93000490068468177142109A8FEF772FC08A80F
:10C94000099007A80A9068468785C4850786A86865
:10C950000D903346F088103309AA6946A2DF0FB064
:10C96000F0BD0000382A00001CB5044681786A46F4
:10C970000C4802F03DFD002812D160781C2148438C
:10C9800009491C2340181A46694602F0F7FD06487B
:10C9900006494C30807A80000A5821466846904704
:10C9A0001CBD00006C210020D8270020B00502002B
:10C9B000F8B5054608206946088001236A461A49E9
:10C9C0002846AADF194800688047B12044DF0028C4
:10C9D00001D0FEF7A1FF11DF002801D0FEF79CFF78
:10C9E000134C606913DF002801D0FEF795FF28463D
:10C9F00000F0D0FE01210F4A880510600E48026841
:10CA00000D4B002080330D468540154204D0C606EC
:10CA1000F60E0D46B5401D60401C2028F3D360691A
:10CA200000F00CF8F8BD0000742B0020CC21002091
:10CA30000010001080E200E000E100E010B5FEF719
:10CA400069FB10BD7CB5134E00250C4630600029F3
:10CA500018D06946002000F0B5F8002819D101A9C6
:10CA6000012000F0AFF8002813D1684601790020BA
:10CA7000002901D0022004E069460978002900D08D
:10CA80000B2020707068002802D1FEF784FE054656
:10CA900028467CBDCC20002010B51C4C0188606865
:10CAA00010290DD011290AD1401E606007D1FEF770
:10CAB00072FE002803D02168002900D0884710BDED
:10CAC00000281ED100210122084600F0ADF8002800
:10CAD00001D0072811D107220221012000F0A4F87B
:10CAE000002801D0072808D104220221002000F0EC
:10CAF0009BF8002805D0072803D02168002900D022
:10CB000088476068401C606010BD0000CC20002099
:10CB100010B5032000F006FA002801D0062800D145
:10CB2000002010BDF8B507460024234802E0641C2D
:10CB3000042C1AD2A2008258BA42F8D1042C14D282
:10CB40001D481E4E0C38002929D001290ED002297B
:10CB50000BD16000201880194578002D05D01848A9
:10CB60000169002901D028468847F8BD6100611895
:10CB7000755C8E19717800290CD011490A22496818
:10CB8000806851430E4A521CFEF75CFF002801D119
:10CB90000B4847700A48B17814300155DDE78068CA
:10CBA000FEF78EFF06486100611814308919005D98
:10CBB0008D78A842D1D0F8BD580502008C25002000
:10CBC000B420002004280CD2074A1269074B8000C9
:10CBD0001B5C01209840904300D001200870002089
:10CBE00070470020FAE700000005005058050200D9
:10CBF00010B5042806D007280ED00A2801D103F06A
:10CC00004BF810BD07481321808876DF06E0002826
:10CC1000F7D0FEF781FE10BDFFF78AF90828F6D19C
:10CC200010BD00008020002070B50023042811D220
:10CC3000440004190D4D012A02D101290DD0002212
:10CC400046008019094E801900290CD0012906D010
:10CC5000022906D00723184670BD0D30C2B22A55EE
:10CC6000F9E74270F7E78270F5E700008C250020B5
:10CC700010B5054A0146127A0020D20702D00846B4
:10CC800000F054F810BD0000B420002070B50E462E
:10CC9000204905464E608D6000200A61A9071ED517
:10CCA0000024012211462046FFF7BEFF641C042C1D
:10CCB00002D20028F5D012E0002810D17208042119
:10CCC0001548FEF7A5FD002809D1FEF78FFD0028C5
:10CCD00005D11148114A00211438FEF755FEE90725
:10CCE00006D00F220E4952058A600023CB608A616C
:10CCF00000280DD108480B4A00211C38FEF744FEDD
:10CD0000002805D10448084A01211838FEF73CFEE6
:10CD100070BD0000B42000206805020061CF010052
:10CD2000000500504DEB0100D5B70100FEB57A4D6E
:10CD30000722EB6892059A4302936B6800939C006C
:10CD400006461B1900200121019349050746734C33
:10CD50003300FEF7F9FB180D1515374755677C882A
:10CD60007F8891DE9E9E9E9E9EC8CED1D8DEDE1428
:10CD70000F21029A49059143A160E7602F70FEBD23
:10CD8000A260E76060680F2252055040800209D51A
:10CD9000A160E760022E02D1E120C0000AE07D2000
:10CDA000400107E0E160A760022E01D1C82001E048
:10CDB000FF2091302E706421FEF7E2F90099414383
:10CDC00000223FE0A260E76060680F2252055040F9
:10CDD000800204D5A160E76019204001EAE7E16024
:10CDE000A760E3E7A260E76060680F225205504049
:10CDF000800202D5A160E760D1E7E160A760D7E7D4
:10CE0000A260E76060680F2252055040800202D5A0
:10CE1000A160E76001E0E160A7602E70009841002A
:10CE200000220FE0A260E76060680F2252055040C8
:10CE3000800202D5A160E76001E0E160A7602E708A
:10CE40000099002236480068FEF7FCFDFEBDA26096
:10CE5000E7601BE061680120800502468A43A2600A
:10CE60000140E16010E06068012189050A468243C3
:10CE7000A2600840E060E3E76068012189050A4696
:10CE80008243A2600840E0600199C9E7E160A760C1
:10CE90002DE023484068FEF713FE11218A1B01D0C4
:10CEA000002807D00F22E96852051140A160E76011
:10CEB000EF60FEBD0121C905E960012A0CD91046C9
:10CEC000C82148436421FEF75BF9696800224143A9
:10CED00013484068FEF7B6FD0F22E968520511407D
:10CEE000E160A760FEBD0F214905A160E7602E70DB
:10CEF000FEBD07229205AAE70D214905A160E76062
:10CF000001218905C2E70321C905A160E7608910F5
:10CF1000BCE70F214905B9E7B42000200005005007
:10CF20004C050200F0B500210B4C0C4D03273F04CB
:10CF30008A00A25892005619326801238B400340A0
:10CF400000D00323BA431B0413433360491C042954
:10CF5000EED30020F0BD000058050200000700508D
:10CF600010B500780221FFF7DDFD10BD0022D2438D
:10CF7000830004490428CA5002D3081820300277DD
:10CF80007047000048280020F0B50025ED43002A36
:10CF900002D00023042601E0042308260B4C04E001
:10CFA0009F00E7597F1C04D05B1CB342F8D328468E
:10CFB000F0BD26185DB2203635709E00A151002AC2
:10CFC000F5D1E11820310877F1E70000482800206A
:10CFD0000249091820200856704700004828002000
:10CFE000FFB58FB01E4615460F0002D10020FEF798
:10CFF00093FC002D02D10020FEF78EFC1C21684618
:10D00000FEF70FF968460178022001436846017077
:10D0100000240194039404940594012108A8069423
:10D02000817068460F99018407943178017771788F
:10D030004177807FF9210840F721801C0840EF21CB
:10D0400008404108490068468177142109A8FEF785
:10D05000E8F808A8099007A80A9068468585C4855D
:10D06000058604480D9709AA69460088189BA2DF27
:10D0700013B0F0BD10210020F8B53E48142201780D
:10D0800051430C18E0680C2148433B49276940187C
:10D09000058941890091241D466802F03BFA01464A
:10D0A0003846FEF76DF8002932D000200099A2889A
:10D0B0004D436188AE198918CD1900222F490028E7
:10D0C0000A6109D002F026FA6188884222D0B5426E
:10D0D00002D1A08800281DD0A06803281AD002F031
:10D0E00019FAA188CA1901461046FEF749F8234CDF
:10D0F0008808E06002F00EFA01462846FEF740F884
:10D10000002911D00020B5422FD000280ED02CE0ED
:10D110000120CBE702F0FEF901463846FEF730F871
:10D1200016494861032021E00120ECE7ADB2B7B217
:10D1300002F0F0F901463846FEF722F8064602F002
:10D14000E9F901462846FEF71BF8864201D1781B13
:10D1500009E002F0DFF9064602F0DCF90146284654
:10D16000FEF70EF8701A80082061022002F0A8FD78
:10D17000F8BD0000AC280020082B002074210020FE
:10D1800010B5074814220178514308180079042883
:10D1900002D000F059F810BD012002F091FD10BD41
:10D1A000AC28002010B50B48142201785143081810
:10D1B000094AC18811620079012806D0032801D0EC
:10D1C000042801D1FFF758FF10BD012002F078FDBF
:10D1D00010BD0000AC280020742100201422504310
:10D1E000054A002180180171C18002220161C260DC
:10D1F0004161018170470000AC280020F8B5104C57
:10D20000069E65781E2D19D027787D191E2D00D316
:10D210001E3D14277D432D1928716A6103C92961B8
:10D22000E860EB802E816078401C607005480078D3
:10D23000002801D1FFF7B6FF0020F8BD0420F8BD9B
:10D24000AC2800207421002010B50D4C142120784A
:10D25000484301190020091DFEF770FB2078FFF7F5
:10D26000BDFF6078401E60702078401CC0B2207006
:10D270001E2801D100202070002002F021FD10BDE9
:10D28000AC280020F8B52348C16800293ED00E68BC
:10D2900021494C680769C078E11B0D022D0AED1C7D
:10D2A000002814D101201D4A000450601B4A403A56
:10D2B00050601B49400008601A4908601A49012063
:10D2C00008602F20FDF716FF12490120C870B542F3
:10D2D00000D23546E81900020F4B000A40331860AF
:10D2E0000D4A5168001B091B0902090A0002000AC5
:10D2F000C91C814209D9506818602F20FDF7FAFE39
:10D3000001200749400480390860F8BD02F0DEFAC8
:10D31000F8BD0000AC210020001501404013014081
:10D3200080E200E000E100E000100140F8B50646B0
:10D33000108814468446801D0D46984201D90C2061
:10D34000F8BD32880720062AFAD31927FF01184BA7
:10D35000BA4201D99A42F3D171880629F0D3B94271
:10D3600001D99942ECD19A4203D0994201D08A4224
:10D37000E6D805216046295420881221401C80B23D
:10D38000208029542088401C80B220804119308898
:10D3900002F0DCFF2188401880B22080411970889B
:10D3A00002F0D4FF2188401820800020F8BD000042
:10D3B000FFFF000010B5FEF7AFFA10BDF8B5164834
:10D3C00001F040FB144D00260C3D144C002807D002
:10D3D000616900291CD001206A461070684616E079
:10D3E0002878002805D06169002911D068460670A8
:10D3F0000DE0687800280DD0A16809480022006877
:10D40000FEF720FB002803D0A169002900D088473F
:10D410002E70F8BD6168F0E700210020DC260020B6
:10D420008805020070B5094B04469E7A0820002545
:10D430000E4207D00648844202D01889A04202D189
:10D440000020156070BD052070BD00001828002068
:10D45000FFFF00000C214843064910B50122401887
:10D460008272911E0181FF21C1720721FDF7D9FE51
:10D4700010BD00001828002010B5134C20790007BB
:10D480001FD46069401C6061E068002801D004205E
:10D4900004E001F009FB002803D0022002F06AFD3D
:10D4A00010BD2069002809D06068C10701D00320A1
:10D4B000F4E70121084360600020EFE7FFF760FE1A
:10D4C00010BD02F04BFD10BD7421002010B50848BE
:10D4D00041680A0708D48A0702D501221143416036
:10D4E000022002F047FD10BD02F038FD10BD000023
:10D4F00074210020F8B500260124154D23E0696849
:10D50000F0004718387821462A698140114218D026
:10D510008A432A6101F0EAFD3A782146EB6891409E
:10D5200019400346934099420BD17978012901D0E3
:10D53000012100E000217B684140002B01D0104612
:10D540009847761CF6B228788642D8D3F8BD0000FA
:10D5500098210020FEB50E46044681786A4623488D
:10D5600001F046FF002826D160780C21204F484367
:10D57000C019807A40061FD4022E1DD0012E1DD066
:10D580001C4DA0781C2148431B49002341181C2234
:10D590006846A847002813D0022E0CD020780C2112
:10D5A000484313490C314018807A144980000A58C6
:10D5B000214668469047FEBD114DE2E7114DE0E778
:10D5C000022EF8D060780C214843C019817ABF221E
:10D5D0001140817260781C21484305494039411847
:10D5E0001C231A466846A847D8E700006C21002093
:10D5F00018280020E1FE010014270020A0050200E9
:10D60000C5F70100E5F6010070B50546114A12485C
:10D6100000241C2363431B189B7EFF2B04D0641C37
:10D62000072CF6D3104670BD0A78022A09D01C22B6
:10D6300062431018FD22827607221030FDF7CAFDE2
:10D6400004E01C2161430818FE2181762C70002221
:10D65000E8E700004380000014270020F7B5052507
:10D660000F4F06460024002E0AD01C206043C0192C
:10D67000072231461030FDF7E6FD002807D00AE00A
:10D680001C206043C019018B0298814203D101988C
:10D690000025046002E0641C072CE4D32846FEBD8C
:10D6A000142700207CB5054681B26A46074801F080
:10D6B0009FFE040008D17421684601F0C5FE0400F5
:10D6C00002D1284601F02CFE20467CBD6C210020B2
:10D6D00070B505460C46100001D0FEF71DF9207804
:10D6E000152802D12846FEF7CDF8002070BD0000B5
:10D6F0001FB56946087301F013FF002801D0FEF73B
:10D700000BF903A800F006FD002801D0FEF704F98C
:10D7100001A805210130FDF784FD69464979012002
:10D7200001438122114030314A06520E69464A7146
:10D7300007228A711022CA71054900916946087151
:10D74000044800F04DFE002801D0FEF7E5F81FBDAB
:10D75000D1D601008220002001B50449684600F0BE
:10D760004BFA002801D0FEF7D7F808BDD0210020E1
:10D7700010B50978002908D003220121FEF7BCFE6C
:10D78000002801D0FEF7C8F810BD0088FFF710F997
:10D7900010BD000010B58AB000242349009400F0A9
:10D7A00087FC002813D101A91F4800F029FC00289C
:10D7B0000FD01E491C4800F00FFD002801D0FEF7D5
:10D7C000ABF81A4800DF002801D0FEF7A5F80AB030
:10D7D00010BD0599072215481031FDF7FBFC1348D1
:10D7E0001022C01D0599FDF7F5FC104811221830D4
:10D7F0000199FDF7EFFC0D4801990A222A301231F8
:10D80000FDF7E8FC094800DF002801D0FEF784F8A6
:10D8100001200090042008906846099007A9079409
:10D82000014800F07FF9CEE7D0210020402B0020F6
:10D83000704700000149086070470000CC210020BB
:10D8400030B58FB005461C216846FDF7EAFC6946F5
:10D850000878082108431022104369460870002404
:10D8600001940394049405940694A87908A98870F7
:10D87000144869460884601C00070794000F0C7761
:10D8800010304877887FF9210840F721801C084034
:10D8900010430121084369468877142109A8FDF740
:10D8A000C0FC08A8099007A80A9069468C85172033
:10D8B000CC8508860D942B46A888103309AAA2DFD0
:10D8C0000FB030BD3115000030B58FB005461C21BA
:10D8D0006846FDF7A6FC69460878042108436946B6
:10D8E0000870002401940394049405940694A87984
:10D8F00008A98870144869460884601C00070794CA
:10D90000000F0C77103048778A7FF9200240F7200B
:10D91000921C0240EF200240012002438A7714212A
:10D9200009A8FDF77EFC08A8099007A80A90694697
:10D930008C851420CC8508860D942B46A888083346
:10D9400009AAA2DF0FB030BD32150000F0B58FB0CC
:10D950000F4605461C216846FDF763FC68460178C2
:10D960000226314301700024019403940494059429
:10D970000694A97908A88170174968460184601C3B
:10D980000107090F6846103107940177002001460E
:10D9900068464177817FF9200140F720891C0140CA
:10D9A000EF2001400120014368468177142109A836
:10D9B000FDF737FC08A8099007A80A9068468685F5
:10D9C000C48506860D972B46A888203309AA694688
:10D9D000A2DF0FB0F0BD0000341500003EB50446D4
:10D9E0001E4801781E48002930D0002C2FD0217805
:10D9F00000292BD11B4900250968002926D0A178D0
:10DA0000072927D21C20184A48438018807EFF2807
:10DA100020D012486A46103001F0EAFC002815D1E7
:10DA200060230422694602A801F0A8FD0299491C5E
:10DA30000CD0602304220D49684601F0C3FE002883
:10DA400004D1A178084A89001C3A55503EBD0448CB
:10DA5000801D3EBD024808303EBD00005C21002014
:10DA60000880000024280020142700209C050200C4
:10DA70003EB50C4627490A782749002A30D08A1D2E
:10DA8000002805D0002C03D00278002A28D101E01C
:10DA900010463EBD214A1268002A21D0817807290C
:10DAA00020D21C221E4B4A43D218927EFF2A19D044
:10DAB0001B4AA3681C3A002B17D089005350817869
:10DAC00014486A46103001F093FC0028E1D160232D
:10DAD0000422694602A801F051FD002809D016E091
:10DAE00008463EBD0C4808303EBD89005158A16033
:10DAF000E5E70298401C0AD0642310226946A0681A
:10DB000001F03CFD0028EFD1029961603EBD024862
:10DB100038303EBD5C210020088000002428002011
:10DB200014270020FEB505462D480C4601782D48E7
:10DB3000002925D0811D002D23D0002C21D0A268E2
:10DB4000002A1ED0297800291AD1274909680029FE
:10DB500016D0A978072916D21C22244B4A43D21882
:10DB6000927EFF2A0FD06A780C235A431E4B0C3B3F
:10DB7000D218927A120703D56068042806D20720CB
:10DB8000FEBD0846FEBD17480830FEBD1448184EBD
:10DB90006A46103001F02CFC0028F6D160230422E4
:10DBA000694602A801F0EAFC002803D10298401C53
:10DBB00000D0104E60230422211D6846B047002883
:10DBC000E3D1642310226846A16801F0FBFD002820
:10DBD000DBD1AA78054B92001C3BA1689950FEBD91
:10DBE0005C21002008800000242800201427002049
:10DBF000E5F60100C5F701000C4A13780C4A002B2A
:10DC000011D0931D002905D0002803D000780028EA
:10DC100009D101E018467047064B1B68002B02D063
:10DC20000870002070471046704700005C210020FB
:10DC30000880000024280020F0B591B00546FF249C
:10DC4000002007940290E9480078002849D0E84F66
:10DC50003868002845D001A800F04EFA002801D00D
:10DC6000FDF75AFE281D05902C2069460883FF20E9
:10DC7000002688710E710396DD4C28880C3C102814
:10DC80000ED0A88803AA0221FFF7CCFB002807D1F9
:10DC900003980C2141430919CA7A69468A7148716F
:10DCA0002A881320192A7DD00FDC102A1BD0112AB4
:10DCB00055D0132A77D0142A13D103980C21484346
:10DCC0000019C07AFF286FD0A1E0CA491A2A6CD087
:10DCD0001E2A65D0522A04D1B87A8000095801A8BA
:10DCE000884711B0F0BDC44F03AA01213846FFF7A1
:10DCF00099FB0028F5D103990C2048430222001912
:10DD0000827211236A4613745171A98801812946D0
:10DD1000083107220091FDF75DFAE87DC10707D0C1
:10DD20004108B2480830405CFF2808D0079006E060
:10DD30003A4607A90098FFF791FC002837D10399CC
:10DD40000C22514309190798C8728A7A08231A438A
:10DD50008A726946887101A8FEF706FE27E00398DB
:10DD60000C2148430119887AFD221040887201076E
:10DD700006D5C0090DD0002101A8FFF7EBFB08E094
:10DD800068468079FF2804D001F0CAFAFF2069466E
:10DD9000887103980C2250431021001981721220BF
:10DDA000694603E08BE043E014E0E4E008743246A7
:10DDB00004A901A8FDF7BCFD6846007C122890D19B
:10DDC00003980C2141430919897A012989D0FFF769
:10DDD00041FB86E72A8A07A90020FFF73FFC0028BD
:10DDE0000ED103990C22514309190798C8728A7AF7
:10DDF00008231A438A726946887101A8FEF7B4FDA8
:10DE000003980C2148430019C07AFF2806D00398D4
:10DE10001C21484376494C394018029003981C2134
:10DE2000484376494218A8880023029986DF58E7BC
:10DE30006946087403980C2148430119887A042222
:10DE400010438872CA7AFF2A0BD04022104388728E
:10DE50001620694608740023A8881A4685217FDFAA
:10DE600021E007A8FFF7D0FB00281FD006460020BE
:10DE70000D9003990C224A431219D27A1C235A435B
:10DE80005E4B0F90D2180E921C2251431A46C43298
:10DE90008918109009910A900B900C903A1DA8884F
:10DEA00009AB00217FDF002893D180E769460798FE
:10DEB000887103990C2251430919C872D7E7787AFF
:10DEC0000C2140084000787203986F460246484390
:10DED000011984468B7AFB2003408B72142038741E
:10DEE000287A002806D05806DFD4C87AFFF7DAFB74
:10DEF0002E7A5CE7687A4007D7D5B879FF28D4D066
:10DF000008273B438B726B7B9B0708D51C25034678
:10DF10006B433A4D5B199D7E6D086D009D76CB7A03
:10DF2000FF2BC2D06346E35C022B10D01C2250436F
:10DF3000324D072240191030FDF74CF968468079C0
:10DF40001C2148434019817EFD2211400DE01C2117
:10DF50004A4327494C3951184A8A1C2148432749CA
:10DF600040180283817E490849008176012101A879
:10DF7000FFF7F0FA1BE7287A0209012A23D10007EC
:10DF8000000F01281FD103980C2242431219927AE4
:10DF9000120718D5242148431549303940181A2151
:10DFA0000830FDF73EF916206946087403980C21E5
:10DFB00048430119887A602210438872787A0221D6
:10DFC000084378720FE003980C2250430019827ABC
:10DFD00080231A43827215206A461074B87A800032
:10DFE000095801A888470026E1E600005C210020CE
:10DFF00024280020C0050200FFFF00001427002095
:10E00000F0B5064626480C460178264889B0002916
:10E010003FD0811D002E3ED0002C3CD0317800290D
:10E0200037D1214900250968002932D0B078072866
:10E0300033D21C211D4F4843C019807EFF282CD0AD
:10E04000E560B07865614843C01920611648A56055
:10E050000C306060684620601148B17807AA103023
:10E0600001F0C6F9002814D11C231A4607A96846F6
:10E0700001F084FA00280CD1E560B1781C225143EC
:10E08000C919656121610849A5600C316160694663
:10E09000216009B0F0BD0846FBE702480830F8E708
:10E0A0005C21002008800000242800201427002084
:10E0B00030B50446002903D00878002814D101E0C7
:10E0C0000B4830BD0B480023006800280CD0094ADB
:10E0D000FF2088700C3A15890520A542F1D14B70BC
:10E0E000D07A8870002030BD0148801F30BD00000C
:10E0F0000E80000024280020002806D0FF21017097
:10E1000041708170C1700020704701487047000065
:10E110000E800000F0B585B0040036D029480025F7
:10E120000560457285722846FFF794F92548242139
:10E130003038FDF776F80026FF27304601F0F0F87A
:10E1400021488755761C072EF7D3742168468180B5
:10E150000721C1801D481C4900900831684601F024
:10E1600063FA00280FD1184E0120083E3070207845
:10E1700000280CD069468888C988484381B2304657
:10E18000103001F061F905B0F0BD1148FBE7114F07
:10E1900000240D48A1B202AA083001F029F9002894
:10E1A00009D11C206043C01900231C2202A901F0E0
:10E1B000E5F9002801D03570E5E7641C072CE8D3A9
:10E1C000E1E70000242800206421002059E201003A
:10E1D0000E800000142700200B4610B51A491B4A78
:10E1E0000978002920D0911D002805D0002B03D0EC
:10E1F0000178002918D101E0084610BD14490968CA
:10E20000002911D0114A8178D21EFF290ED01C207E
:10E21000414310480918887E800705D40722184614
:10E220001031FCF7D7FF0022104610BD4078FF28C0
:10E23000FAD00C21484306490C394118887A8007E6
:10E24000F2D507221846ECE75C2100200880000088
:10E250002428002014270020FFB55C4891B00068F6
:10E260001A9F1E46002873D0742F71D86846FFF796
:10E2700043FF002801D0FDF74FFB002468460470DF
:10E280000471254605970696A9B20FAA504801F0D9
:10E29000AFF8002806D108220FA91198FCF7D3FF88
:10E2A000002817D06D1C072DEED368468578FF2D0A
:10E2B0004ED01298032810D046481C21301AFCF783
:10E2C0005FFF012707281ED204A802901398002898
:10E2D0000BD011E068468570E7E7742F03D040202B
:10E2E000694608716BE02020FAE738463849A840B3
:10E2F00010394968084260D0284602F02DF82020E5
:10E300006946087149E031481C214C38301AFCF745
:10E3100037FF00281DD02D4824213038301AFCF753
:10E320002FFF01002C482BD040216A4611712B4948
:10E330008E4244D0274AA9001C3A5158B1423CD1E0
:10E3400004A90291C07A854227D16846447024E02E
:10E3500033E004A802902020694608714C701B49E4
:10E360000B940C310C9158390791694689781C221D
:10E370005143184A05908918089107A906910CE0A5
:10E38000302269460A714C70CF70807A800704D4BD
:10E39000114824212438FCF744FF129869460228CA
:10E3A000087910D0022108436946087104A8029038
:10E3B00001A96846139AFDF7BBFA15B0F0BD69468E
:10E3C00008790321EFE73843EFE700002428002015
:10E3D0006C21002014270020182800209C05020032
:10E3E00070B5064618480D46007800280ED017492B
:10E3F000002E0ED0002D0CD02868002809D0144C17
:10E400002168002907D011480A3870BD0F48801FC5
:10E4100070BD084670BD20600522691D201DFCF7F7
:10E42000D9FE2879A072207A0221400840000843D2
:10E43000FB2210402072E07901231843084310406A
:10E44000E0710020307070BD5C2100200E80000063
:10E450002428002010B50E4900234A788C78A24267
:10E4600012D0521CD2B24A70022A00D14B704A78A4
:10E47000074B920018339A5802600869101800027E
:10E48000000A0861012010BD0360002010BD0000DB
:10E49000AC21002010B5002803D0112802D0FDF7D0
:10E4A00063FA10BD0248082241681143416010BD63
:10E4B0007421002010B51C4C2178204640680129A9
:10E4C00006D0022929D0032912D1000717D513E05D
:10E4D000000711D415481422017851430818C18847
:10E4E000A28B891A0904090CC18002D001F0FAFC40
:10E4F00010BDFEF7A9FE10BD00F082FC10BD6069E2
:10E50000401C606100F0D0FA002803D0207801F0B0
:10E51000D7FB10BDFEF734FE10BD607804498000C3
:10E520000858804710BD000074210020AC2800204E
:10E53000E405020010B528DFFFF7ACFF10BD10B5F1
:10E5400029DFFFF7A7FF10BD002804D00349496D5C
:10E550000160002070470320704700007C2B0020E2
:10E560000EB51120694608720A2211A102A87CDFAB
:10E57000002801D0FDF7D0F9104878DF002801D03D
:10E58000FDF7CAF90020FF22009041326946019050
:10E590000A804122D2004A808880FF209130C880C2
:10E5A00068467ADF002801D0FDF7B6F90EBD0000FD
:10E5B0004E6F726469635F48524D00004103000072
:10E5C000002070470020704700207047F8B50646CD
:10E5D0004078242104464C4324490C2250436118BE
:10E5E000224A00254B6824328018AE462F469C46AE
:10E5F000002B0CD0827A1346D20908D05A0606D4D2
:10E600000D461A4A614689B2175908358E46174C8D
:10E61000008924343B4672462946A9DF0B2819D0CD
:10E62000002800D01248012F13D170780C214843E4
:10E63000001900890F4AA7DF00280AD00E49884236
:10E6400012D0082810D0891C88420DD011280BD078
:10E650000020F8BD70780C2148430123001900897F
:10E6600072462946A9DFE0E70148F8BDF4270020FB
:10E6700041800000FFFF00000230000070B50C4632
:10E68000014660782422084D50434019382300F099
:10E6900075FF002807D161782422514349194A683F
:10E6A000521C00D14A6070BDF4270020F3B589B038
:10E6B0000D461A206946888368780C210327484351
:10E6C000224E3B468019008907AA6946AADF002826
:10E6D00038D1687824214843741A001969468A8B16
:10E6E0000830FCF7B0FD0028687807D024214843A3
:10E6F0000119496800290DD0154E0CE00C21414349
:10E700008919897A89071DD4242148430019FCF707
:10E7100088FD17E00F4E27506846828B68782421C9
:10E720004843001942606878484300196946083038
:10E73000FCF750FD6878242148430119382324222E
:10E740000998B04700200BB0F0BD00001828002049
:10E75000C5F70100E5F6010010B5FFF737FF10BD62
:10E7600010B5FFF78BFF10BD10B5FFF79FFF10BD71
:10E77000F8B50746104E0125BD403068FDF7A0F9F9
:10E7800000280DD10D4C2069284207D1384600F0F1
:10E79000ADFC0028E06804D0284303E0A8432061D2
:10E7A000F8BDA843E0602069002228432061A168E9
:10E7B0003068FDF747F9F8BDF80502009821002000
:10E7C00070B51B4C207900072ED41A48142201780A
:10E7D00051430D182E6900F09DFE0146E8882A89F4
:10E7E000761E80188019FCF7CBFC216900250029D2
:10E7F00009D06169814206D1E56060680121084362
:10E80000606000200AE000F04FF9002802D00220EA
:10E81000E56003E02069002803D0032001F0AAFB93
:10E8200070BDFEF7ADFC70BD01F098FB70BD00003F
:10E8300074210020AC28002010B51249124801F0C4
:10E8400043F9114C81B2183CA068401CA0600D48EF
:10E850006038FDF755FF002809D0082807D00B497C
:10E86000884204D00A49884201D0FDF755F80321B7
:10E87000A068FCF785FC002901D0012000E0002001
:10E88000207010BDFC2400209820002004300000DF
:10E8900001340000F0B5002406460D46601C010757
:10E8A00095B0090F08A810310C940174297B4174AC
:10E8B000817CF9273940891C81741C2105A8FCF74B
:10E8C000B0FC6846017D10200143684601750CA824
:10E8D00006940A900894099401220B9408A8827661
:10E8E0001749684601870D94697B08A80175A97BC3
:10E8F0004175817DF7203940891C0140EF2001409E
:10E90000114308A8817514216846FCF78AFC0EA8FB
:10E9100000900DA801900FAA0021304600F012F8D7
:10E920000146684601811421448181810FA8049029
:10E930003346F08808336A4605A9A2DF15B0F0BD5A
:10E94000372A0000F7B542790025002A00D00425B7
:10E950002222135C0222002B00D01543CBB2FF29E8
:10E9600007D901221543029A090A537091700326B0
:10E9700002E0029902264B7004464034A189002926
:10E9800001D010210D43002716E0B11C142909D92C
:10E99000A189C91B4A007900091824302431FCF7E9
:10E9A00019FC0CE0029B7A0012189B19928C1A70C9
:10E9B000120A5A70CEB27F1CA189B942E5DCA08947
:10E9C000C01BA081029805703046FEBDF8B51C4CF6
:10E9D0002078002833D02069002807D00026E0687E
:10E9E000002805D00025002E04D011E00126F6E70E
:10E9F0000125F8E7684652DF052804D0002804D036
:10EA0000FCF78AFF04E0012602E0216900988847AC
:10EA1000002D10D1608869460880A06861DF052854
:10EA200004D0002804D0FCF777FF04E0012502E0C1
:10EA3000E168A0688847002EDCD0002DD3D0F8BD57
:10EA4000D4210020418805480288914204D340889F
:10EA5000814201D80120704700207047F820002033
:10EA60001048018CC9B2012917D1818C090714D132
:10EA7000018D09060A0F03D1828D1206120F0ED0E6
:10EA8000090F012903D1828D1206120F07D0032925
:10EA900003D1808D0006000F01D0002070470120B7
:10EAA00070470000C00F00F070B50E4814220178C6
:10EAB00051430C18256900F02DFD0146E08822899C
:10EAC0006D1E80184019FCF75BFB07494A698242BA
:10EAD00006D3824202D10869002801D0002070BD0F
:10EAE000012070BDAC28002074210020800701D0D7
:10EAF000002070470120704730B51588EC1C9C42FF
:10EB000001D90C2030BD02244C5513881C255B1CF8
:10EB10009BB21380CD5413885B1C9BB213800128D9
:10EB200007D0022807D0032807D0042807D00720E1
:10EB300030BD002004E0012002E0CC5401E00320BD
:10EB4000C8541088401C1080002030BD10B5044807
:10EB5000017AC90702D00078FEF7E8F810BD00007E
:10EB6000B4200020F8B52C49C8680A690C780F79E0
:10EB700089688646944600913EE00099E200551867
:10EB80002A7836E0182353436968521CC918AB78B9
:10EB9000D2B2934200D100220B78022B02D0032B79
:10EBA00027D123E04E680346014603E0B14204D07A
:10EBB0000B46C96900291CD0F8E7002919D08B42FF
:10EBC00008D1C069002805D1144F0126BE60002677
:10EBD000B44601270E68C969D961002909D00B68BC
:10EBE0009B190B6005E00174C06900E0002100285A
:10EBF000F9D169789142C5D12146641EE4B2002959
:10EC0000BBD1054962460A61C8600F71704501D0E9
:10EC10000120F8BD0020F8BDAC210020001001400B
:10EC2000F8B5044631480026C168009107784EE0E7
:10EC30002E48F90080680D1843E0002C02D02046D1
:10EC4000E4691FE02878182141436A68401CC0B27B
:10EC500051182870AA78904200D12E700A7848681E
:10EC6000012A30D1027C002A2DD18A684260CA680C
:10EC700082600A69C260496981611C490979002979
:10EC800000D04660194943680A699C46991A0902EE
:10EC9000174B090A994202D28268891807E0614637
:10ECA000511A09028268090A8A4202D9511A01607E
:10ECB00000E006604660012186600174C66101F0D3
:10ECC000EBF9002CB9D1287869788842BAD1384656
:10ECD0007F1EFFB20028ABD10448C1680098814272
:10ECE00001D00120F8BD0020F8BD0000AC210020BB
:10ECF000FFFF7F0098B001F02FFA3A4A3A4903200B
:10ED0000FDF7C4FF002801D0FCF706FE01A9002092
:10ED1000FDF798FE002801D0FCF7FEFD684600795B
:10ED2000022857D0002168460170FDF795FD68461E
:10ED30000078FEF7DDFCFFF713FC382101A8FCF793
:10ED400070FA022168460171012484710621C171A3
:10ED5000032585822548069024210FA8FCF761FA37
:10ED600010A80472FF202D3000241390B4200094CA
:10ED700014901F4B0FAA214601A8FCF7E9FF0028B9
:10ED800001D0FCF7C9FD00F0F3FE00F047FE1C21A6
:10ED90006846FCF746FA0520C00301900F200004E6
:10EDA0000290009468460573124881896846C181C3
:10EDB000047411480590114806906846FDF768FAFA
:10EDC000002801D0FCF7A8FDFCF7A4FE0320FDF706
:10EDD000DBF802E00121A6E748DF0028FCD0FCF7C1
:10EDE0009BFDF9E7F1CB0100CD0C0000A82000202D
:10EDF000D7F101009C240020F9F10100B5D30100F6
:10EE000010B504480822416891434160007800F041
:10EE100057FF10BD7421002070B5144682880E463D
:10EE200005462088111D4118921C994201D8FE2ADE
:10EE300001D90C2070BD521C32542088FF21401C87
:10EE400080B2208031542088401C80B220808119FB
:10EE5000288801F07BFA2188401880B22080AA8897
:10EE6000002A09D0A968002908D08019FCF7B2F956
:10EE70002088A98840182080002070BD072070BD20
:10EE8000F8B50F46017814460546012902D1687885
:10EE9000002806D02088821C9A422DD8012902D051
:10EEA00006E00720F8BD69784118891C994223D8EB
:10EEB000181A801E86B2684606802188B81C081879
:10EEC00069467DDF0028EDD12878022805D1694602
:10EED0000988B14201D809210AE00821012805D199
:10EEE0006878B04202D86A46108001E06846068021
:10EEF00068460088FE2801D90C20F8BD2288401CF5
:10EF0000B8542088401C80B220803954208869463B
:10EF1000401C20800988401820800020F8BD002077
:10EF200070470020704700207047000031B5054C45
:10EF300004E0401E00902046FCF7CCF80098002822
:10EF4000F7D138BDE70300008207D30EFF229A40B5
:10EF50008907090E10B5994000280BDA03071B0F2B
:10EF6000083B9C080C4BA400E318DC6994430C4359
:10EF7000DC6107E08408094BA400E418236893438C
:10EF80000B432360C106C90E012088400449086074
:10EF90000449086010BD000000ED00E000E400E05E
:10EFA00080E200E000E100E0F3B581B00F46019897
:10EFB00000F0D6F9012400281E4E019817D0FEF764
:10EFC00007F880192030007F8009032802D001282B
:10EFD00006D007E01848006901998C40204201D111
:10EFE000022100E00321019800F0CEF8FEBD00F000
:10EFF000C3F90028FAD00198FDF7EAFF0546810021
:10F00000C81D0E4AF93089180A6980B222430A6184
:10F010000B49401800210160002FE7D00198FDF74F
:10F02000D7FF800030580028E0D00648AC4044604C
:10F03000FEBD00004828002000050050006500408B
:10F040000060004000630040FEB5044623480E46C1
:10F050000019202141560027C8171346401C01D033
:10F06000082738E0F27819462046FDF78DFF05465F
:10F07000401C2FD0B078002807D01948A1000918EB
:10F08000086802229043086007E000217378204658
:10F0900000910A46019100F065F8F078002810D040
:10F0A0001048AA001018317802690F4B1A4002610B
:10F0B000E206D20C8907890B0A4301690A430261FF
:10F0C00009E00648327840192030017F920111434F
:10F0D000017700E004273846FEBD000048280020E4
:10F0E0000007005000650040FFE0FCFF034909698C
:10F0F000C140C807C00F00D0012070470005005074
:10F1000070B5124D2879002801D0082070BD0F4934
:10F1100000204039421E0B182033401CC0B21A7028
:10F120002028F8D300242046FDF720FF641CE4B219
:10F13000082CF8D303210620FFF706FF012004491D
:10F14000C007486001202871002070BD8828002079
:10F150000063004002480079002800D00120704779
:10F160008828002030B552000A439900039C0A43C6
:10F170002102049D0A4329040A43024980004018E1
:10F18000026030BD00070050820006481018026877
:10F1900003231B049A430260026809040A430260C5
:10F1A000704700000007005003494018006801281C
:10F1B00000D0002070470000006000404058002848
:10F1C00000D00120704703221202801840680840D6
:10F1D00000D00120704710B5002809D0032806D1BF
:10F1E0000220FDF745FD002801D0FCF795FB10BD7E
:10F1F00000F052FD10BD000010B50078002807D1C6
:10F2000004483B21808876DF002801D0FCF784FB8E
:10F2100010BD000080200020F0B58BB00C460546E4
:10F2200002216846017301268674228982826289DE
:10F23000C28220460C300027069008976846018459
:10F24000478407A80990A98A288808AAA5DF00286A
:10F2500004D0E96A002919D0884717E06846808BF6
:10F26000C007C00F12D068460782288803A9A8DF0C
:10F27000002812D1217B20460D300B00FCF764F9E9
:10F2800009420F1C22242729402B4200FF20FE3078
:10F2900069460882288803A9A8DF0BB0F0BD6A463A
:10F2A00017700BE006221BE069460E720190AA6AF5
:10F2B000284690470020F0E76A4616706289022AC5
:10F2C000F2D2EFE7022000E00320694614E00420B8
:10F2D000FBE70520F9E76189032905D2032208210C
:10F2E0002846FDF709F9D8E741780278080210436B
:10F2F0006946888002D006200870D8E70720FBE71F
:10F300000920E2E70322EBE70021425C002A01D05A
:10F3100001207047491C0629F7D3002070470000E0
:10F3200070B505461C200D4968434418204611302D
:10F330000621FBF776FF20461021FBF772FFFF2125
:10F3400021740020A176C0432083284601F004F8F0
:10F35000024A0020A9001C3A505070BD142700201A
:10F360000449081820214156042901DB0120704777
:10F3700000207047482800200449081820214156E1
:10F38000042901D20120704700207047482800203E
:10F3900070B50D00044602D10020FCF7BDFA002C28
:10F3A00002D10020FCF7B8FA2878207069886170D3
:10F3B000090AA170A988E170090A2171E8886071C1
:10F3C000000AA07170BD000007490979490701D4FE
:10F3D00008207047002804D00449497801600020C3
:10F3E00070470E207047000074210020AC280020D8
:10F3F00070B5134B1B795B0701D4082070BD002842
:10F4000017D0002A15D00368022B10D20C240D4D02
:10F410005C432E59002E0AD046686019048945893C
:10F4200040686143654371182818884203D8072053
:10F4300070BD0E2070BD13600020516070BD0000D3
:10F4400074210020082B0020FEB5044626480E46F5
:10F450000079400701D40820FEBD002C25D020688B
:10F46000022836D20C21214D48432958002930D09A
:10F4700040194189028940685143091860688142F6
:10F4800027D9FFF733FB002811D06068019021686D
:10F490000C2251434F1979680091401A39890D4661
:10F4A000FBF76EFE002914D103E00E20FEBD1020F4
:10F4B000FEBD29463046FBF763FE002909D1002E28
:10F4C00007D07889009945430198491980198842E5
:10F4D00001D90720FEBD0020024600903346214698
:10F4E0000320FDF78BFEFEBD74210020082B0020B9
:10F4F00010B507484469601C06D000F00BF80146BF
:10F500002046FBF73DFE10BD01200007406910BDFD
:10F510000010001001200007006980B27047000051
:10F5200070B5002412482546047044702846FDF743
:10F5300055FE6D1C1E2DF9D30E4D6C80FFF7D8FFC4
:10F54000C61EFFF7E7FF46430B4AAE6000206C6122
:10F550000C214143545089180C81401C4C810228D5
:10F56000F6D32C70AC610420EC616860002070BDA3
:10F57000AC28002074210020082B0020FFB528486B
:10F5800081B000791F4616460C46400702D4082079
:10F5900005B0F0BD002C1DD0019800281AD02068BD
:10F5A000022815D20C211F4D4843295800290FD09D
:10F5B00041194A8908894968424351186268914251
:10F5C00006D9002E04D0B04202D3F119814203D9EA
:10F5D0000720DDE70E20DBE70198FFF787FA002818
:10F5E0001BD03846FFF782FA002816D06068FFF774
:10F5F0007DFA002811D060683246C1190198FBF7E6
:10F60000E9FD009620680C2148432D580022022174
:10F610002046019BA8470020BAE71020B8E7000069
:10F6200074210020082B0020F8B52C4D04462879C1
:10F630000E46400701D40820F8BD002C20D0002E33
:10F640001ED0206800281BD0FFF764FF0146A08869
:10F65000814213D3102811D3E08800280ED0FFF781
:10F6600047FF471EFFF756FF4743E288A188A86877
:10F670004A431218974201D3890703D00720F8BDE7
:10F680000E20F8BD6988022926D031600C22144B67
:10F6900051437060CA18506020685850A08810818B
:10F6A000E0885081FFF736FF0646FFF733FFA18859
:10F6B000E288401E514340183146FBF777FD04466F
:10F6C000FFF728FF0146A86861430818A86068880A
:10F6D000401C68800020F8BD0420F8BD7421002083
:10F6E000082B0020F8B5044621481E46007915462F
:10F6F0000F46400701D40820F8BD002F1CD0002C75
:10F700001AD02168022915D20C20414319484258C9
:10F71000002A0FD008184289018940684A4310180E
:10F720006268904206D9002D04D0A94202D3A819DC
:10F73000884203D90720F8BD0E20F8BD3846FFF7F0
:10F74000D5F9002811D03046FFF7D0F900280CD0A9
:10F750006068FFF7CBF9002807D02B463A462146D0
:10F7600001200096FDF74AFDF8BD1020F8BD00000D
:10F7700074210020082B002010B51149024608789A
:10F78000002811D004280FD0022A16D0032A0BD14A
:10F790000A79120711D48A69521C8A61032A08D097
:10F7A000022802D000F08CFA10BD487800F0E2FB8D
:10F7B00010BD0D20FCF7D8F810BDFEF77BFE10BD84
:10F7C00074210020F8B5044621481E4600791546EC
:10F7D0000F46400701D40820F8BD002F1CD0002C94
:10F7E0001AD02168022915D20C20414319484258E9
:10F7F000002A0FD008184289018940684A4310182E
:10F800006268904206D9002D04D0A94202D3A819FB
:10F81000884203D90720F8BD0E20F8BD3846FFF70F
:10F8200065F9002811D03046FFF760F900280CD0A8
:10F830006068FFF75BF9002807D02B463A4621465F
:10F8400004200096FDF7DAFCF8BD1020F8BD00009A
:10F8500074210020082B002010B510481049808822
:10F86000884205D0132176DF03E0FCF755F802E06B
:10F8700074DF0028F9D10020FDF7FAF9002801D043
:10F88000FCF74AF8FCF776FD002801D0FCF744F8B5
:10F89000FF20F530FFF74AFB10BD0000802000205C
:10F8A000FFFF000010B507480078002809D0054880
:10F8B0000549203000F008F981B203487038FCF7A0
:10F8C000A1FF10BD802000200C25002070B5012470
:10F8D0000B49600408600B494010886009494039B1
:10F8E0008860094D6C602F20FBF704FCAC60074D6D
:10F8F00000242F202C61FBF7FDFBEC7070BD000095
:10F9000080E100E04013014000100140AC210020E4
:10F9100030B50A48FF21C57D0022094C0931094B49
:10F92000002D625007D09969437EC268D154417E50
:10F93000491C417630BD986930BD000090280020F8
:10F9400000200040002500401FB501236A461370C7
:10F9500010720348019106C8684690471FBD000019
:10F960009028002008B502490020009108BD000041
:10F970008020002010B50121202805DA1A4A814094
:10F98000114201D1194810BD8107C90E002808DABB
:10F990000207120F083A9208154B9200D218D2694A
:10F9A00004E08208134B9200D2181268CA40110674
:10F9B000890F042911D200290FD002290DD00E4938
:10F9C0004C68C306DB0E01229A40002C08D0400987
:10F9D00080000B5813430B5004E00448401C10BD3A
:10F9E00006480260002010BDFC06FFBC012000009C
:10F9F00000ED00E000E400E0E821002000E100E08C
:10FA000010B5044801224178514041700248FCF78A
:10FA100010FF10BD802000209C24002070B51448E9
:10FA2000012451216425846022C0047110491148C9
:10FA300000F03EF80E488C2110300160FF212D317E
:10FA400041600A218160002606730146094808309A
:10FA500000F02EF80648FF2120300560F531846063
:10FA60004160067301460348103000F021F870BD74
:10FA7000EC2400209020002010B503680A688968F3
:10FA80009C1A8C4202D9591A016010BD01210260F2
:10FA9000017110BD10B54B68026889689C1A8C42D0
:10FAA00002D95118016010BD00210360017110BD21
:10FAB0000A7B002A03D049680160002102E009683E
:10FAC000016001210171704710B5044600790028DA
:10FAD000204602D0FFF7DEFF01E0FFF7CDFF2068F0
:10FAE00010BDFFB50746806A81B0144600283DD09E
:10FAF000002538462030009033E00C20B96A684376
:10FB00000E18B088801CFE2802D90C2005B0F0BD6C
:10FB100022880299401C885420881622401C80B2FA
:10FB2000208002990A542088401C80B220800299CB
:10FB30004118308800F00AFC2188401880B22080EB
:10FB4000B288002A0AD0B16800290FD0029BC018E1
:10FB5000FBF740FB2088B188401820806D1C00987E
:10FB6000EDB2007BA842C8D80020CFE70720CDE740
:10FB700030B59FB0032118A80175142110A8FBF718
:10FB800050FB0024012510A8109405711DA81290A7
:10FB9000601C0107090F10A81031017344738473AE
:10FBA000601C0107090F10A81031C1730020014625
:10FBB00010A8017401462F48FCF7CEFD002801D0A3
:10FBC000FBF7AAFE142115A8FBF72BFB0120014629
:10FBD00018A8103141700120014618A81031817019
:10FBE0000020014618A8C1700120014618A8103154
:10FBF000017110A815940576642118A81794017056
:10FC00001C4815A91838FCF7EFFA002801D0FBF7BB
:10FC100083FE40216846FBF704FB17A16846FCF70A
:10FC20000BFE0120014608A8103101770020014693
:10FC300008A841776846FCF78FFC002801D0FBF745
:10FC40006BFE12481B901A941C9410A80585094855
:10FC50001AA98030FCF7C6FB002801D0FBF75CFE38
:10FC60000B48FDF7E7FD0B488078FDF775FD1FB0E9
:10FC700030BD00009C2400204E6F726469635365A0
:10FC80006D69636F6E647563746F720071D7010084
:10FC900059F801008020002010B50020FCF7E8FF93
:10FCA000002801D0FBF738FEFCF732FF002801D016
:10FCB000FBF732FE3CDF002801D0FBF72DFE10BD24
:10FCC00010B50F490028087009D0012811D002286A
:10FCD00012D0032802D14869FEF72CFC10BD002089
:10FCE0008861C861074840780028F7D0FDF75AFAC4
:10FCF00010BD00F0F7F810BD00F056F810BD000080
:10FD000074210020AC280020002803D00249C860DC
:10FD1000002070470E207047D42100201CB50349F5
:10FD200001910091694660DF1CBD00008020002029
:10FD300070B50E460546144614211046FBF771FABD
:10FD40000120002120802161217326726572002D1F
:10FD500000D0A072002070BD10B5FBF7CFFD10BD24
:10FD600070B5002901D08C0701D0072070BD074C69
:10FD70000125A16062800649636010DF0028F5D18B
:10FD800025701620FFF7F6FD70BD0000D42100207D
:10FD900059FD0100002803D0024908610020704786
:10FDA0000E207047D4210020F8B5164C142260684C
:10FDB0004008400060601448017851430E183769CC
:10FDC000FFF7A8FB01463846FBF7DAF90546606104
:10FDD000FFF7A0FB0146F0887F1EC019FBF7D0F9A2
:10FDE00002228542606801D1104300E090436060C8
:10FDF000E1681040084303D0002000F0BBF8F8BDD4
:10FE00000220FAE774210020AC28002010B5024837
:10FE10004069FEF78FFB10BD7421002010B5FFF77D
:10FE200067FB441EFFF776FB4443FFF773FB04496F
:10FE30004A69521E5043CA682146FEF780FB10BD36
:10FE400074210020F8B510481422017851430C1891
:10FE50002569FFF75FFB0146E08822898018401979
:10FE6000FBF78EF90F46FFF743FB461EFFF752FBE9
:10FE70004643E0882289F1198018044A4019126922
:10FE8000FEF75DFBF8BD0000AC28002074210020C7
:10FE900070B5FFF73FFB0546FFF72AFB441EFFF74F
:10FEA00039FB60432946FBF76BF9FEF743FB70BD56
:10FEB00070B5FFF72FFB8608FFF72CFB0749496950
:10FEC00048430446FFF714FB451EFFF723FB684336
:10FED00032462146FEF733FB70BD0000742100203E
:10FEE0000020704770B514481422017851430C1853
:10FEF000241DFFF70FFB6188104E884211D2FFF7D7
:10FF000009FB61880D1AFFF705FB8208A188E068EC
:10FF10004018216940194919FEF711FBFFF7FAFA59
:10FF200007E0A288E06880188A082169FEF707FBCD
:10FF30006088F06170BD0000AC28002074210020B2
:10FF400010B505480079000703D4012000F012F82D
:10FF500010BD00F003F810BD7421002010B5044856
:10FF60000822416891434160407800F003F810BDD9
:10FF70007421002002494870024980000858004757
:10FF800074210020D005020010B50446FFF7F4FBF1
:10FF90002046FBF7ADFF10BD70B50C00054602D141
:10FFA0000020FBF7B9FC002D02D10020FBF7B4FCC8
:10FFB000207828702088FF2109020840000A687014
:10FFC000206809020840000CA8702068000EE87044
:10FFD00020792871207A68712089000AA871A068A8
:10FFE000000CE87170BD000010B5054800790007ED
:10FFF00002D4FDF7C5F810BDFFF7B0FF10BD00003B
:020000040002F8
:1000000074210020FEB51F4C00252769E06802908E
:100010006846FEF71FFA0190FEF7A4FD0646019818
:10002000002822D000230098E16817E00E680A46F5
:10003000864202D9301A086012E0801BF3180026AD
:100040001660D668D169B446002E07D0FE18360275
:10005000360A566066469660D56115460029E5D198
:100060002846E160FEF7DCFD06E02846FEF7D8FDF5
:10007000002801D1002E02D00298FDF703F90020DC
:100080002071FEBDAC21002001200249000508605E
:100090007047000000E200E010B50E4BD96800295F
:1000A00006D002680C68A24204D8A21A0A60C16194
:1000B000D86010BD0B4604E00B46C969121B00292D
:1000C00004D00C689442F7D3A41A0C600260C1619A
:1000D000D86110BDAC210020F8B51D4DEC68002C96
:1000E00034D01C48002740682969401A0602360AA5
:1000F0002068B04218D8361AC7192246107CE46925
:1001000000280FD0002010746B69002B07D0916974
:1001100050699847002805D0FBF7FEFB02E05169C3
:1001200090698847002CE3D16978A878814206D18C
:10013000401CC0B2A870022801D10020A870044958
:100140000006800D18310F50FFF79EFFF8BD00002C
:10015000AC2100200015014010B50023184A0521EC
:100160001846FBF727FC002801D0FBF7D5FB154A02
:1001700001211548FBF708FC002801D0FBF7CCFB58
:100180001148124A0121001DFBF7FEFB002801D097
:10019000FBF7C2FB0C480E4A01210830FBF7F4FBC9
:1001A000002801D0FBF7B8FB07480A4A01210C30B0
:1001B000FBF7EAFB002801D0FBF7AEFB10BD000007
:1001C00074220020A9BC01003805020039E80100B2
:1001D000A5F8010001FA0100FF2107481D310022A6
:1001E00042500648828A8168895C828A521C8282D7
:1001F0000348C161704700000020004090280020A3
:10020000002500401FB500216A4611701072044895
:1002100082680192817506C8684690471FBD00003C
:1002200090280020F0B5454D012185B049022846AF
:10023000FEF7C9FF01270026414C002824D0FF21EA
:1002400025312846FEF7BAFF00281DD0FF202530B3
:100250002E5081203B4980008860A07E002800D17C
:100260006F60022168460170374908680860039092
:10027000E17D68460172E0680190E675267606CC5D
:100280006846083C90472BE004212846FEF79BFF78
:10029000002825D0FF2109312846FEF78FFF0028CE
:1002A0001ED0FFF735FBE07D617E884218D1207EAD
:1002B000002808D0627EE168E0752069E06026765B
:1002C000667610460AE0A07E002800D16F6081208B
:1002D0001C4980008860E675607EE168FFF734FBAA
:1002E000FF211D312846FEF769FF00280DD0A18AA5
:1002F000A07D814202D2FFF76FFF06E0FF211D3192
:100300006E50002801D0FFF77DFFFF2145312846C0
:10031000FEF754FF00280ED0FF2045302E50A07E5F
:10032000002800D02F60E07D002804D0E675607EB4
:10033000E168FFF709FB05B0F0BD000000200040B8
:100340009028002000230040802400400870000A0C
:100350004870022070470000012181400248426835
:100360008A434260704700005C21002038B515497F
:10037000154A488890420FD04A78144C521CD2B289
:100380004A70237B934208D3091D75DF002803D0F0
:10039000A169002900D0884738BD00254D70217C17
:1003A000002907D03B2176DF002803D0A16900296E
:1003B00000D0884761690029EED0684605708847FB
:1003C00038BD0000F4200020FFFF0000DC260020E4
:1003D000EFF30580C005C00D1AD0103840B20028D8
:1003E00008DA0107090F083989080C4A89008918B9
:1003F000C96904E081080A4A8900891809688007E8
:10040000C00EC1400806800F012803D0032803D086
:1004100002207047002070470120704700ED00E087
:1004200000E400E042788378521CD2B2934200D1BB
:1004300000220378934201D1002070470A7041687E
:1004400040781822504308187047FFB583B016460D
:100450000C9D0D9C1F46022200950194039800F00C
:100460000CF8002807D13B46102231460095019434
:10047000039800F002F807B0F0BDFFB583B007465F
:1004800000200C9C8646268805463AE07868A9003C
:1004900042181188684681805188C18000226946CF
:1004A00001A865DF002839D16846017805988142A6
:1004B00026D17046002801D0002200E002222088C8
:1004C000891842180D998A4227D8714600290AD105
:1004D000401C80B22080069A049911542088401C48
:1004E000208001208646218806980A18694601A8BE
:1004F00065DF002812D169462088097840182080DD
:100500006D1C3888A842C1DC704600280AD02088BB
:10051000801B401E80B2FF2802D90C2007B0F0BD1E
:10052000069988550020F9E70179002902D1007B5E
:10053000002800D001207047F42100201422002060
:100540003422002054220020010000074C25002006
:100550006C250020982500201100000012000000EA
:1005600013000000140000001100030025CB01005F
:100570001200030025CB01001300030025CB01006E
:100580001400030025CB0100BC26002023D1BCEAC7
:100590005F782315DEEF121200000000FFFFFFFF5F
:1005A00027EF0100ADE60100C9E5010069E70100A0
:1005B00023EF01007DE60100C5E5010061E70100D0
:1005C0001FEF0100CDE50100C1E5010059E7010081
:1005D00091FE0100B1FE01000DFE010045FE01008B
:1005E0001DFE010041FF0100CDD4010079D40100BE
:1005F000E9FF0100C1E70100202B002003000000FB
:1006000020060200802000207401000084B2010056
:1006100040060200F4210020E411000072B5010040
:1006200042010323FFFF0C2A0D1801000F180100DF
:100630000A180103EFFFFF042331D8011424F4004A
:040000050001B0C185
:00000001FF
